:100000000C9472000C9491000C9491000C9491004B
:100010000C9491000C9491000C9491000C9491001C
:100020000C9491000C9491000C9491000C9491000C
:100030000C9491000C94B7010C9491000C949100D5
:100040000C9491000C9491000C9491000C949100EC
:100050000C9491000C9491000C9491000C949100DC
:100060000C9491000C9491000C9491000C949100CC
:100070000C9491000C9491000C9491000C949100BC
:100080000C9491000C9491000C9491000C949100AC
:100090000C9491000C9491000C9491000C9491009C
:1000A0000C9491000C9491000C9491000C9491008C
:1000B0000C9491000C9491000C9491000C9491007C
:1000C0000C9491000C9491000C9491000C9491006C
:1000D0000C9491000C9491000C9491000C9491005C
:1000E0000C94910011241FBECFEFD1E2DEBFCDBF33
:1000F00012E0A0E0B2E0E2EFF7E000E00BBF02C0E8
:1001000007900D92A430B107D9F712E0A4E0B2E055
:1001100001C01D92A830B107E1F70E9493000C9432
:10012000F8030C940000CF93DF93CDB7DEB70E94A5
:10013000C30080E090E00E94CC0180E092E00E9449
:100140002C020E9467014EE150E066E170E087E119
:1001500090E00E94D8000E9495018823E1F3A5E277
:10016000B0E0E5E2F0E0808180688C930E94F700C7
:100170000E942601A5E2B0E0E5E2F0E090818FE781
:1001800089238C93E8CFCF93DF93CDB7DEB7A4E27A
:10019000B0E0E4E2F0E0808180688C93A5E2B0E01A
:1001A000E5E2F0E0808180688C93DF91CF91089543
:1001B000CF93DF93CDB7DEB723970FB6F894DEBFAA
:1001C0000FBECDBF89836A834B83898180930602EA
:1001D0008A81809305028B818093040223960FB657
:1001E000F894DEBF0FBECDBFDF91CF910895CF93BE
:1001F000DF93CDB7DEB7809104028B3330F480916A
:1002000004028F5F809304021EC0809105028B332D
:1002100040F410920402809105028F5F80930502E2
:1002200012C080910602873140F41092050280913D
:1002300006028F5F8093060206C01092060210929B
:10024000050210920402DF91CF910895CF93DF93BE
:10025000CDB7DEB7809106020E9442018AE30E9478
:100260000B02809105020E9442018AE30E940B0268
:10027000809104020E9442018DE00E940B02DF91F6
:10028000CF910895CF93DF93CDB7DEB721970FB607
:10029000F894DEBF0FBECDBF898389819AE0692FB4
:1002A0000E94D803805D0E940B0289819AE0692F29
:1002B0000E94D803892F805D0E940B0221960FB601
:1002C000F894DEBF0FBECDBFDF91CF910895CF93DD
:1002D000DF93CDB7DEB7E0E7F0E01082E6EBF0E0C9
:1002E00080E28083E0EBF0E082E08083E1EBF0E00D
:1002F00087E08083E2EBF0E01082E3EBF0E08FE157
:100300008083E6EBF0E08081882F90E08A71907026
:100310000097B9F7E7E3F0E01082E0E7F0E082E071
:1003200080837894DF91CF910895CF93DF93CDB7F9
:10033000DEB722970FB6F894DEBF0FBECDBF809117
:100340000702882339F01092070281E090E09A8337
:10035000898302C01A82198289819A8122960FB6F6
:10036000F894DEBF0FBECDBFDF91CF9108951F92ED
:100370000F920FB60F9211248F93CF93DF93CDB7C7
:10038000DEB781E080930702DF91CF918F910F90CC
:100390000FBE0F901F901895CF93DF93CDB7DEB7A8
:1003A00022970FB6F894DEBF0FBECDBF9A83898324
:1003B00089819A81009729F4E4ECF0E087E6808354
:1003C00004C0E4ECF0E083E38083E1ECF0E088E15A
:1003D0008083A2ECB0E0E2ECF0E0808186608C9358
:1003E00022960FB6F894DEBF0FBECDBFDF91CF913E
:1003F0000895CF93DF93CDB7DEB7E0ECF0E08081D6
:100400008823DCF7E6ECF0E08081992787FD909562
:10041000DF91CF910895CF93DF93CDB7DEB72197CA
:100420000FB6F894DEBF0FBECDBF8983E0ECF0E0DD
:100430008081882F90E0807290700097B9F3E6EC8D
:10044000F0E08981808321960FB6F894DEBF0FBE5D
:10045000CDBFDF91CF910895CF93DF93CDB7DEB7B6
:1004600022970FB6F894DEBF0FBECDBF9A83898363
:100470000BC0E981FA81208189819A8101969A8352
:100480008983822F0E940B02E981FA81808188236F
:1004900081F722960FB6F894DEBF0FBECDBFDF9175
:1004A000CF910895CF93DF93CDB7DEB729970FB6DD
:1004B000F894DEBF0FBECDBF9E838D8378876F8398
:1004C00049871C821B828985282F30E08F8198857F
:1004D000B9010E94E4038A838A818A3068F08C81A2
:1004E000882F90E09C018D819E81F901E80FF91F12
:1004F0008A81895C80830CC08C81882F90E09C016C
:100500008D819E81F901E80FF91F8A81805D8083CA
:100510008C818F5F8C838985282F30E08F8198852F
:10052000B9010E94E403CB0198878F838F8198855E
:10053000009749F68C81882F90E09C018D819E81E7
:10054000F901E80FF91F10828C8181508C838B8117
:10055000882F90E09C018D819E81F901E80FF91FA1
:10056000808189838B81882F90E09C018D819E8181
:10057000D901A80FB91F8C81882F90E09C018D8133
:100580009E81F901E80FF91F80818C938C81882F5F
:1005900090E09C018D819E81F901E80FF91F89810E
:1005A00080838B818F5F8B839B818C81981760F216
:1005B00029960FB6F894DEBF0FBECDBFDF91CF9165
:1005C0000895CF93DF93CDB7DEB728970FB6F89491
:1005D000DEBF0FBECDBF9E838D831B821A82198220
:1005E00040C08B81882F90E09C018D819E81F90114
:1005F000E80FF91F808180337CF18B81882F90E098
:100600009C018D819E81F901E80FF91F80818A3359
:100610001CF58B81882F90E09C018D819E81F901D2
:10062000E80FF91F808180538C8389819A819C0116
:10063000220F331FC901880F991F880F991F280F98
:10064000391F8C81882F90E0820F931F9A838983B2
:100650008B818F5F8B8305C089819A8198878F8377
:1006600011C08B81882F90E09C018D819E81F901C2
:10067000E80FF91F8081882309F0B3CF89819A811F
:1006800098878F838F81988528960FB6F894DEBF60
:100690000FBECDBFDF91CF910895CF93DF93CDB73C
:1006A000DEB725970FB6F894DEBF0FBECDBF9D8392
:1006B0008C831B821A820E94F90189838981883088
:1006C000E9F48A819B8118161906C4F48A819B81FA
:1006D0009C018C819D81F901E80FF91F108288E04F
:1006E0000E940B0280E20E940B0288E00E940B0233
:1006F0008A819B8101979B838A8323C08A819B8106
:1007000084319105F4F489818830D9F089810E947F
:100710000B028A819B819C018C819D81F901E80FEC
:10072000F91F898180838A819B8101969B838A83BB
:100730008A819B819C018C819D81F901E80FF91FC1
:10074000108289818D3009F0B6CF25960FB6F894C6
:10075000DEBF0FBECDBFDF91CF910895CF93DF9362
:10076000CDB7DEB724970FB6F894DEBF0FBECDBF6E
:100770009C838B831A82198205C089819A81019694
:100780009A83898389819A819C018B819C81F9015B
:10079000E80FF91F8081882381F789819A81249647
:1007A0000FB6F894DEBF0FBECDBFDF91CF91089595
:1007B000991B79E004C0991F961708F0961B881FB3
:1007C0007A95C9F780950895AA1BBB1B51E107C014
:1007D000AA1FBB1FA617B70710F0A61BB70B881FD1
:1007E000991F5A95A9F780959095BC01CD01089560
:0207F000FFCF39
:0407F2000A0D0000EC
:00000001FF
