:100000000C9472000C9493000C9493000C94930045
:100010000C9493000C9493000C9493000C94930014
:100020000C9493000C9493000C9493000C94930004
:100030000C9493000C9493000C9493000C949300F4
:100040000C9493000C9493000C9493000C949300E4
:100050000C9493000C9493000C9493000C949300D4
:100060000C9493000C9401020C94C6010C94930020
:100070000C9493000C9493000C9493000C949300B4
:100080000C9493000C9493000C9493000C949300A4
:100090000C9493000C9493000C9493000C94930094
:1000A0000C9493000C9493000C9493000C94930084
:1000B0000C9493000C9493000C9493000C94930074
:1000C0000C9493000C9493000C9493000C94930064
:1000D0000C9493000C9493000C9493000C94930054
:1000E0000C94930011241FBECFEFD1E2DEBFCDBF31
:1000F00000E00CBF12E0A0E0B2E0EAE3F7E000E0CD
:100100000BBF02C007900D92A832B107D9F712E0D9
:10011000A8E2B2E001C01D92AC3AB107E1F70E943B
:1001200095000C949C030C940000CF93DF93CDB703
:10013000DEB766970FB6F894DEBF0FBECDBF80E086
:1001400090E00E94D700789480E092E00E949F01A6
:10015000CE0103960E942703CE0103960E94BB02A4
:100160009A83898389819A819E012D5F3F4F40E167
:10017000BC01C9010E942C0289E192E00E949F010A
:10018000CE0103960E949F0189819A819E012D5F75
:100190003F4F42E0BC01C9010E942C0280E292E084
:1001A0000E949F01CE0103960E949F01CDCFCF9365
:1001B000DF93CDB7DEB722970FB6F894DEBF0FBE40
:1001C000CDBF9A83898389819A81009729F4E4ECD1
:1001D000F0E087E680830DC0E4ECF0E083E3808309
:1001E000A0ECB0E0E0ECF0E090818981880F892BF1
:1001F0008C93E1ECF0E088E18083A1ECB0E0E1ECED
:10020000F0E0808180688C93A2ECB0E0E2ECF0E05A
:10021000808186608C9322960FB6F894DEBF0FBE65
:10022000CDBFDF91CF910895CF93DF93CDB7DEB7E8
:1002300022970FB6F894DEBF0FBECDBF9091680233
:1002400080916902981719F41A82198204C081E01A
:1002500090E09A83898389819A8122960FB6F894D7
:10026000DEBF0FBECDBFDF91CF910895CF93DF9357
:10027000CDB7DEB721970FB6F894DEBF0FBECDBF66
:100280000E9414018823E1F30E941401882379F06D
:1002900080916902882F90E0FC01E85DFD4F80812C
:1002A0008983809169028F5F8F738093690289814E
:1002B000992787FD909521960FB6F894DEBF0FBE63
:1002C000CDBFDF91CF910895CF93DF93CDB7DEB748
:1002D00021970FB6F894DEBF0FBECDBF8983809102
:1002E000AA02882F90E001969C012F7330708091B4
:1002F000AB02882F90E08F73907028173907B1F008
:100300008091AA02882F90E02981FC01E659FD4FD7
:1003100020838091AA028F5F8F738093AA02A1EC41
:10032000B0E0E1ECF0E0808180628C9321960FB622
:10033000F894DEBF0FBECDBFDF91CF910895CF936C
:10034000DF93CDB7DEB722970FB6F894DEBF0FBEAE
:10035000CDBF9A8389830CC0E981FA818081282FDF
:1003600089819A8101969A838983822F0E946401F0
:10037000E981FA818081882379F722960FB6F89473
:10038000DEBF0FBECDBFDF91CF9108951F920F92B8
:100390000FB60F9211248F939F93AF93BF93EF9358
:1003A000FF93CF93DF93CDB7DEB79091AA028091F0
:1003B000AB02981741F4A1ECB0E0E1ECF0E08081F1
:1003C0008F7D8C9311C0A6ECB0E08091AB02882F9A
:1003D00090E0FC01E659FD4F80818C938091AB0247
:1003E0008F5F8F738093AB02DF91CF91FF91EF917D
:1003F000BF91AF919F918F910F900FBE0F901F9063
:1004000018951F920F920FB60F9211242F933F93BE
:100410008F93EF93FF93CF93DF93CDB7DEB78091A8
:100420006802282F30E0E6ECF0E08081F901E85D19
:10043000FD4F8083809168028F5F8F738093680285
:10044000DF91CF91FF91EF918F913F912F910F907D
:100450000FBE0F901F901895CF93DF93CDB7DEB7E7
:1004600029970FB6F894DEBF0FBECDBF9E838D8354
:1004700078876F8349871C821B828985282F30E00B
:100480008F819885B9010E9488038A838A818A3086
:1004900068F08C81882F90E09C018D819E81F9010C
:1004A000E80FF91F8A81895C80830CC08C81882FBA
:1004B00090E09C018D819E81F901E80FF91F8A81EE
:1004C000805D80838C818F5F8C838985282F30E0CD
:1004D0008F819885B9010E948803CB0198878F830B
:1004E0008F819885009749F68C81882F90E09C0138
:1004F0008D819E81F901E80FF91F10828C81815056
:100500008C838B81882F90E09C018D819E81F901E5
:10051000E80FF91F808189838B81882F90E09C01EF
:100520008D819E81D901A80FB91F8C81882F90E001
:100530009C018D819E81F901E80FF91F80818C93C8
:100540008C81882F90E09C018D819E81F901E80FBC
:10055000F91F898180838B818F5F8B839B818C8145
:10056000981760F229960FB6F894DEBF0FBECDBF84
:10057000DF91CF910895CF93DF93CDB7DEB7289762
:100580000FB6F894DEBF0FBECDBF9E838D831B8256
:100590001A82198240C08B81882F90E09C018D8146
:1005A0009E81F901E80FF91F808180337CF18B81F6
:1005B000882F90E09C018D819E81F901E80FF91F41
:1005C00080818A331CF58B81882F90E09C018D817E
:1005D0009E81F901E80FF91F808180538C83898106
:1005E0009A819C01220F331FC901880F991F880F20
:1005F000991F280F391F8C81882F90E0820F931F3D
:100600009A8389838B818F5F8B8305C089819A81CF
:1006100098878F8311C08B81882F90E09C018D81FA
:100620009E81F901E80FF91F8081882309F0B3CF7B
:1006300089819A8198878F838F81988528960FB6B4
:10064000F894DEBF0FBECDBFDF91CF910895CF9359
:10065000DF93CDB7DEB725970FB6F894DEBF0FBE98
:10066000CDBF9D838C831B821A820E9436018983B1
:1006700089818830E9F48A819B8118161906C4F4AF
:100680008A819B819C018C819D81F901E80FF91F72
:10069000108288E00E94640180E20E94640188E088
:1006A0000E9464018A819B8101979B838A8323C076
:1006B0008A819B8184319105F4F489818830D9F055
:1006C00089810E9464018A819B819C018C819D812A
:1006D000F901E80FF91F898180838A819B81019646
:1006E0009B838A838A819B819C018C819D81F901F6
:1006F000E80FF91F108289818D3009F0B6CF259659
:100700000FB6F894DEBF0FBECDBFDF91CF91089535
:10071000AA1BBB1B51E107C0AA1FBB1FA617B70727
:1007200010F0A61BB70B881F991F5A95A9F7809543
:0A0730009095BC01CD010895FFCFA4
:10073A000A0D496E74726F6475636520756E206E5A
:10074A00FA6D65726F3A0A0D000A0D4865783A002B
:08075A000A0D42696E3A00002D
:00000001FF
