:100000000C9472000C9493000C9493000C94930045
:100010000C9493000C9493000C9493000C94930014
:100020000C9493000C9493000C9493000C94930004
:100030000C9493000C9493000C9493000C949300F4
:100040000C9493000C9493000C9493000C949300E4
:100050000C9493000C9493000C9493000C949300D4
:100060000C9493000C9493000C9493000C949300C4
:100070000C9493000C9493000C9493000C949300B4
:100080000C9493000C9493000C9493000C949300A4
:100090000C9493000C9493000C9493000C94930094
:1000A0000C9493000C9493000C9493000C94930084
:1000B0000C9493000C9493000C9493000C94930074
:1000C0000C9493000C9493000C9493000C94930064
:1000D0000C9493000C9493000C9493000C94930054
:1000E0000C94930011241FBECFEFD1E2DEBFCDBF31
:1000F00000E00CBF12E0A0E0B2E0E2EFF5E000E0CB
:100100000BBF02C007900D92A832B107D9F712E0D9
:10011000A8E2B2E001C01D92A832B107E1F70E9447
:1001200095000C94F8020C940000CF93DF93CDB7A8
:10013000DEB766970FB6F894DEBF0FBECDBF81E085
:1001400090E00E94D8000E94050180E092E00E94A9
:100150003801CE0103960E945902CE0103960E94F7
:10016000ED019A83898389819A819E012D5F3F4F9A
:1001700040E1BC01C9010E945E0189E192E00E9458
:100180003801CE0103960E94380189819A819E012F
:100190002D5F3F4F42E0BC01C9010E945E0180E239
:1001A00092E00E943801CE0103960E943801CBCF25
:1001B000CF93DF93CDB7DEB722970FB6F894DEBFAB
:1001C0000FBECDBF9A83898389819A81009729F4D4
:1001D000E4ECF0E087E6808304C0E4ECF0E083E345
:1001E0008083E1ECF0E088E18083A2ECB0E0E2EC17
:1001F000F0E0808186608C9322960FB6F894DEBF83
:100200000FBECDBFDF91CF910895CF93DF93CDB7D0
:10021000DEB7E0ECF0E080818823DCF7E6ECF0E08C
:100220008081992787FD9095DF91CF910895CF9395
:10023000DF93CDB7DEB721970FB6F894DEBF0FBEC0
:10024000CDBF8983E0ECF0E08081882F90E0807260
:1002500090700097B9F3E6ECF0E0898180832196F5
:100260000FB6F894DEBF0FBECDBFDF91CF910895DA
:10027000CF93DF93CDB7DEB722970FB6F894DEBFEA
:100280000FBECDBF9A8389830BC0E981FA8120819B
:1002900089819A8101969A838983822F0E9417010E
:1002A000E981FA818081882381F722960FB6F8943C
:1002B000DEBF0FBECDBFDF91CF910895CF93DF9307
:1002C000CDB7DEB729970FB6F894DEBF0FBECDBF0E
:1002D0009E838D8378876F8349871C821B828985E3
:1002E000282F30E08F819885B9010E94E4028A832B
:1002F0008A818A3068F08C81882F90E09C018D8102
:100300009E81F901E80FF91F8A81895C80830CC006
:100310008C81882F90E09C018D819E81F901E80FEE
:10032000F91F8A81805D80838C818F5F8C838985B2
:10033000282F30E08F819885B9010E94E402CB011B
:1003400098878F838F819885009749F68C81882FB5
:1003500090E09C018D819E81F901E80FF91F1082C8
:100360008C8181508C838B81882F90E09C018D81C2
:100370009E81F901E80FF91F808189838B81882F85
:1003800090E09C018D819E81D901A80FB91F8C81BD
:10039000882F90E09C018D819E81F901E80FF91F63
:1003A00080818C938C81882F90E09C018D819E812F
:1003B000F901E80FF91F898180838B818F5F8B831F
:1003C0009B818C81981760F229960FB6F894DEBF56
:1003D0000FBECDBFDF91CF910895CF93DF93CDB7FF
:1003E000DEB728970FB6F894DEBF0FBECDBF9E8351
:1003F0008D831B821A82198240C08B81882F90E0E6
:100400009C018D819E81F901E80FF91F8081803365
:100410007CF18B81882F90E09C018D819E81F90178
:10042000E80FF91F80818A331CF58B81882F90E0BB
:100430009C018D819E81F901E80FF91F8081805315
:100440008C8389819A819C01220F331FC901880FF7
:10045000991F880F991F280F391F8C81882F90E0D2
:10046000820F931F9A8389838B818F5F8B8305C053
:1004700089819A8198878F8311C08B81882F90E022
:100480009C018D819E81F901E80FF91F80818823ED
:1004900009F0B3CF89819A8198878F838F8198855E
:1004A00028960FB6F894DEBF0FBECDBFDF91CF9177
:1004B0000895CF93DF93CDB7DEB725970FB6F894A5
:1004C000DEBF0FBECDBF9D838C831B821A820E942C
:1004D0000501898389818830E9F48A819B81181616
:1004E0001906C4F48A819B819C018C819D81F9014C
:1004F000E80FF91F108288E00E94170180E20E9435
:10050000170188E00E9417018A819B8101979B83D4
:100510008A8323C08A819B8184319105F4F4898187
:100520008830D9F089810E9417018A819B819C01C2
:100530008C819D81F901E80FF91F898180838A816F
:100540009B8101969B838A838A819B819C018C81FC
:100550009D81F901E80FF91F108289818D3009F022
:10056000B6CF25960FB6F894DEBF0FBECDBFDF9194
:10057000CF910895CF93DF93CDB7DEB724970FB611
:10058000F894DEBF0FBECDBF9C838B831A82198285
:1005900005C089819A8101969A83898389819A818C
:1005A0009C018B819C81F901E80FF91F80818823D0
:1005B00081F789819A8124960FB6F894DEBF0FBE29
:1005C000CDBFDF91CF910895AA1BBB1B51E107C09E
:1005D000AA1FBB1FA617B70710F0A61BB70B881FD3
:1005E000991F5A95A9F780959095BC01CD01089562
:0205F000FFCF3B
:1005F2000A0D496E74726F6475636520756E206EA4
:10060200FA6D65726F3A0A0D000A0D4865783A0074
:080612000A0D42696E3A000076
:00000001FF
