:100000000C9472000C9491000C9491000C9491004B
:100010000C9491000C9491000C9491000C9491001C
:100020000C9491000C9491000C9491000C9491000C
:100030000C9491000C9457020C9491000C94910034
:100040000C9491000C9491000C9491000C949100EC
:100050000C9491000C9491000C9491000C949100DC
:100060000C9491000C9491000C9491000C949100CC
:100070000C9491000C9491000C9491000C949100BC
:100080000C9491000C9491000C9491000C949100AC
:100090000C9491000C9491000C9491000C9491009C
:1000A0000C9491000C9491000C9491000C9491008C
:1000B0000C9491000C9491000C9491000C9491007C
:1000C0000C9491000C9491000C9491000C9491006C
:1000D0000C9491000C9491000C9491000C9491005C
:1000E0000C94910011241FBECFEFD1E2DEBFCDBF33
:1000F00012E0A0E0B2E0E6EBF8E000E00BBF02C0E7
:1001000007900D92AE31B107D9F712E0AEE1B2E03F
:1001100001C01D92A232B107E1F70E9493000C9436
:100120005A040C940000CF93DF93CDB7DEB76597E8
:100130000FB6F894DEBF0FBECDBF87E089830E9463
:10014000E1000E946C020E94040180E092E00E94A3
:10015000C902E4ECF0E0808191819E012E5F3F4F67
:100160004AE0BC01C9010E94EF02CE0102960E9442
:10017000C9028BE192E00E94C90289810E94EC01D0
:1001800040E050E064E170E081E190E00E943901DC
:100190000E9435028823E1F3A5E2B0E0E5E2F0E059
:1001A000808180688C9389810E9458010E94AB01F4
:1001B000A5E2B0E0E5E2F0E090818FE789238C933F
:1001C000E7CFCF93DF93CDB7DEB7A4E2B0E0E4E2B0
:1001D000F0E0808180688C93A5E2B0E0E5E2F0E099
:1001E000808180688C93ADE2B0E0EDE2F0E0808148
:1001F0008E7F8C93AEE2B0E0EEE2F0E08081816031
:100200008C93DF91CF910895CF93DF93CDB7DEB775
:10021000E6E4F0E01082E4E4F0E01082E7E4F0E0ED
:100220001082ECE2F0E08081882F90E08170907085
:100230008823B9F7E5E4F0E082E08083ECE2F0E0C7
:100240008081882F90E0817090700097B9F3E5E489
:10025000F0E01082A4ECB0E0E6E4F0E08081882FCA
:1002600090E0019711969C938E937894DF91CF91B3
:100270000895CF93DF93CDB7DEB723970FB6F894E9
:10028000DEBF0FBECDBF89836A834B838981809394
:1002900020028A8180931F028B8180931E02239605
:1002A0000FB6F894DEBF0FBECDBFDF91CF9108959A
:1002B000CF93DF93CDB7DEB721970FB6F894DEBFAB
:1002C0000FBECDBF898390911E028981890F8093D3
:1002D0001E0280911E028B33A8F180911F028B3386
:1002E00078F480911E029CE3692F0E943A04892FC2
:1002F00080931E0280911F028F5F80931F0222C095
:1003000080912002873188F410921F0280911E0292
:100310009CE3692F0E943A04892F80931E028091EA
:1003200020028F5F809320020DC010922002109255
:100330001F0280911E029CE3692F0E943A04892FBC
:1003400080931E0221960FB6F894DEBF0FBECDBF7C
:10035000DF91CF910895CF93DF93CDB7DEB7809132
:1003600020020E94C7018AE30E94A80280911F0216
:100370000E94C7018AE30E94A80280911E020E9487
:10038000C7018DE00E94A802DF91CF910895CF931D
:10039000DF93CDB7DEB721970FB6F894DEBF0FBE5F
:1003A000CDBF898389819AE0692F0E943A04805DDC
:1003B0000E94A80289819AE0692F0E943A04892F3D
:1003C000805D0E94A80221960FB6F894DEBF0FBE92
:1003D000CDBFDF91CF910895CF93DF93CDB7DEB737
:1003E00021970FB6F894DEBF0FBECDBF89838981F8
:1003F000882391F1E0E7F0E01082E6EBF0E080E2A4
:100400008083E0EBF0E082E08083E1EBF0E087E0E6
:100410008083E2EBF0E01082E3EBF0E08981882F4B
:1004200090E0880F991F82959295907F9827807F02
:10043000982781508083E6EBF0E08081882F90E060
:100440008A7190700097B9F7E7E3F0E01082E0E777
:10045000F0E082E08083789421960FB6F894DEBFB6
:100460000FBECDBFDF91CF910895CF93DF93CDB76E
:10047000DEB722970FB6F894DEBF0FBECDBF8091D6
:100480002102882339F01092210281E090E09A83C2
:10049000898302C01A82198289819A8122960FB6B5
:1004A000F894DEBF0FBECDBFDF91CF9108951F92AC
:1004B0000F920FB60F9211248F93CF93DF93CDB786
:1004C000DEB781E080932102DF91CF918F910F9071
:1004D0000FBE0F901F901895CF93DF93CDB7DEB767
:1004E000A0ECB0E0E0ECF0E0808182608C93A1ECC5
:1004F000B0E0E1ECF0E0808188618C93A1ECB0E0A9
:10050000E1ECF0E080818B7F8C93A2ECB0E0E2EC38
:10051000F0E0808186608C93A2ECB0E0E2ECF0E049
:100520008081877C8C93DF91CF910895CF93DF9367
:10053000CDB7DEB7E0ECF0E080818823DCF7E6ECB5
:10054000F0E08081992787FD9095DF91CF91089504
:10055000CF93DF93CDB7DEB721970FB6F894DEBF08
:100560000FBECDBF8983E0ECF0E08081882F90E062
:10057000807290700097B9F3E6ECF0E08981808397
:1005800021960FB6F894DEBF0FBECDBFDF91CF919D
:100590000895CF93DF93CDB7DEB722970FB6F894C7
:1005A000DEBF0FBECDBF9A8389830BC0E981FA817C
:1005B000208189819A8101969A838983822F0E9462
:1005C000A802E981FA818081882381F722960FB6FB
:1005D000F894DEBF0FBECDBFDF91CF910895CF93CA
:1005E000DF93CDB7DEB72B970FB6F894DEBF0FBE03
:1005F000CDBF98878F837A8769874B871E821D823C
:100600001C821B828B85282F30E089859A85B90151
:100610000E9446049E838D838D819E81C0969E8319
:100620008D838D819E818A3391052CF08D819E81F1
:1006300007969E838D838D81EF81F88580838B81E2
:100640009C8101969C838B838B85282F30E0898544
:100650009A85B9010E944604CB019A8789878985CA
:100660009A85009719F18B819C819A83898319C09F
:1006700089819A819C018F819885D901A80FB91F22
:100680008F8198859C012150304089819A81F901A0
:10069000E80FF91F80818C9389819A8101979A8351
:1006A000898389819A811816190614F389859A8598
:1006B000009709F0A7CF8B819C819C018F81988541
:1006C000F901E80FF91F10822B960FB6F894DEBFE0
:1006D0000FBECDBFDF91CF910895CF93DF93CDB7FC
:1006E000DEB728970FB6F894DEBF0FBECDBF9E834E
:1006F0008D831B821A82198240C08B81882F90E0E3
:100700009C018D819E81F901E80FF91F8081803362
:100710007CF18B81882F90E09C018D819E81F90175
:10072000E80FF91F80818A331CF58B81882F90E0B8
:100730009C018D819E81F901E80FF91F8081805312
:100740008C8389819A819C01220F331FC901880FF4
:10075000991F880F991F280F391F8C81882F90E0CF
:10076000820F931F9A8389838B818F5F8B8305C050
:1007700089819A8198878F8311C08B81882F90E01F
:100780009C018D819E81F901E80FF91F80818823EA
:1007900009F0B3CF89819A8198878F838F8198855B
:1007A00028960FB6F894DEBF0FBECDBFDF91CF9174
:1007B0000895CF93DF93CDB7DEB725970FB6F894A2
:1007C000DEBF0FBECDBF9D838C831B821A820E9429
:1007D0009602898389818830E9F48A819B81181681
:1007E0001906C4F48A819B819C018C819D81F90149
:1007F000E80FF91F108288E00E94A80280E20E94A0
:10080000A80288E00E94A8028A819B8101979B83AD
:100810008A8323C08A819B8184319105F4F4898184
:100820008830D9F089810E94A8028A819B819C012D
:100830008C819D81F901E80FF91F898180838A816C
:100840009B8101969B838A838A819B819C018C81F9
:100850009D81F901E80FF91F108289818D3009F01F
:10086000B6CF25960FB6F894DEBF0FBECDBFDF9191
:10087000CF910895991B79E004C0991F961708F04D
:10088000961B881F7A95C9F780950895AA1BBB1BF4
:1008900051E107C0AA1FBB1FA617B70710F0A61B80
:1008A000B70B881F991F5A95A9F780959095BC01A1
:0608B000CD010895FFCF09
:1008B6000A0D4175746F62617564696E6720646FB5
:0E08C6006E652E2055425252303D000A0D0044
:00000001FF
