:020000020000FC
:10000000F0EBE0EBD0ECCAEC81E0803021F0813005
:1000100041F00C9405002E2E1F2E0C9417000C940A
:100020002E002C2E1D2E0C9417000C942E0017E081
:1000300020E040E8242B169418F4542F50952523E3
:100040001A954695B9F720950C942600813019F041
:10005000E22F0C942C00C22F0C940F0017E020E02C
:1000600040E850E0242B269418F4542F5095252373
:100070001A954695B9F72095813019F0F22F0C9416
:0C0080004200D22F0C9444000C940500A8
:00000001FF
