:100000000C9472000C9493000C9493000C94930045
:100010000C9493000C9493000C9493000C94930014
:100020000C9493000C9493000C9493000C94930004
:100030000C9493000C9493000C9493000C949300F4
:100040000C9493000C9493000C9493000C949300E4
:100050000C9493000C94A2010C9493000C949300C4
:100060000C9493000C9493000C9493000C949300C4
:100070000C9493000C9493000C9493000C949300B4
:100080000C9493000C9493000C9493000C949300A4
:100090000C9493000C9493000C9493000C94930094
:1000A0000C9493000C9493000C9493000C94930084
:1000B0000C9493000C9493000C9493000C94930074
:1000C0000C9493000C9493000C9493000C94930064
:1000D0000C9493000C9493000C9493000C94930054
:1000E0000C94930011241FBECFEFD1E2DEBFCDBF31
:1000F00000E00CBF12E0A0E0B2E0EAEFF7E000E0C1
:100100000BBF02C007900D92A030B107D9F712E0E3
:10011000A0E0B2E001C01D92A630B107E1F70E9455
:1001200095000C94FC030C940000CF93DF93CDB7A3
:10013000DEB70E94BE0080E090E00E94D0010E94E5
:10014000650142E36BE387E10E94D4000E948001D5
:100150008823E1F3A5E2B0E0E5E2F0E08081806889
:100160008C930E94F3000E942401A5E2B0E0E5E236
:10017000F0E090818FE789238C93E8CFCF93DF93D2
:10018000CDB7DEB7A4E2B0E0E4E2F0E080818068C1
:100190008C93A5E2B0E0E5E2F0E090818FE789235F
:1001A0008C93DF91CF910895CF93DF93CDB7DEB7D6
:1001B00023970FB6F894DEBF0FBECDBF89836A8345
:1001C0004B838981809300028A81809301028B8115
:1001D0008093020223960FB6F894DEBF0FBECDBF08
:1001E000DF91CF910895CF93DF93CDB7DEB78091A4
:1001F00002028B3330F4809102028F5F80930202FF
:1002000020C0809101028B3340F410920202809151
:1002100001028F5F8093010214C080910002873138
:1002200050F41092010210920202809100028F5F3E
:100230008093000206C010920002109201021092F8
:100240000202DF91CF910895CF93DF93CDB7DEB750
:10025000809100020E9440018AE30E940F02809177
:1002600001020E9440018AE30E940F028091020273
:100270000E9440018DE00E940F02DF91CF9108950E
:10028000CF93DF93CDB7DEB721970FB6F894DEBFDB
:100290000FBECDBF898389819AE0692F0E94DC035C
:1002A000805D0E940F0289819AE0692F0E94DC0321
:1002B000892F805D0E940F0221960FB6F894DEBF51
:1002C0000FBECDBFDF91CF910895CF93DF93CDB710
:1002D000DEB7E6E4F0E01082E4E4F0E082E0808360
:1002E000E5E4F0E083E08083E7E4F0E089EF8083F9
:1002F000EEE6F0E083E080837894DF91CF9108957B
:10030000CF93DF93CDB7DEB722970FB6F894DEBF59
:100310000FBECDBF80910502882339F010920502EF
:1003200081E090E09A83898302C01A8219828981D0
:100330009A8122960FB6F894DEBF0FBECDBFDF9133
:10034000CF9108951F920F920FB60F9211242F9301
:100350008F939F93CF93DF93CDB7DEB78091030246
:10036000909104020196909304028093030280917D
:1003700003029091040223E0883E920739F4109220
:1003800004021092030281E080930502DF91CF9175
:100390009F918F912F910F900FBE0F901F901895E6
:1003A000CF93DF93CDB7DEB722970FB6F894DEBFB9
:1003B0000FBECDBF9A83898389819A81009729F4E2
:1003C000E4ECF0E087E6808304C0E4ECF0E083E353
:1003D0008083E1ECF0E088E18083A2ECB0E0E2EC25
:1003E000F0E0808186608C9322960FB6F894DEBF91
:1003F0000FBECDBFDF91CF910895CF93DF93CDB7DF
:10040000DEB7E0ECF0E080818823DCF7E6ECF0E09A
:100410008081992787FD9095DF91CF910895CF93A3
:10042000DF93CDB7DEB721970FB6F894DEBF0FBECE
:10043000CDBF8983E0ECF0E08081882F90E080726E
:1004400090700097B9F3E6ECF0E089818083219603
:100450000FB6F894DEBF0FBECDBFDF91CF910895E8
:10046000CF93DF93CDB7DEB722970FB6F894DEBFF8
:100470000FBECDBF9A8389830BC0E981FA812081A9
:1004800089819A8101969A838983822F0E940F0223
:10049000E981FA818081882381F722960FB6F8944A
:1004A000DEBF0FBECDBFDF91CF910895CF93DF9315
:1004B000CDB7DEB729970FB6F894DEBF0FBECDBF1C
:1004C0009E838D8378876F8349871C821B828985F1
:1004D000282F30E08F819885B9010E94E8038A8334
:1004E0008A818A3068F08C81882F90E09C018D8110
:1004F0009E81F901E80FF91F8A81895C80830CC015
:100500008C81882F90E09C018D819E81F901E80FFC
:10051000F91F8A81805D80838C818F5F8C838985C0
:10052000282F30E08F819885B9010E94E803CB0124
:1005300098878F838F819885009749F68C81882FC3
:1005400090E09C018D819E81F901E80FF91F1082D6
:100550008C8181508C838B81882F90E09C018D81D0
:100560009E81F901E80FF91F808189838B81882F93
:1005700090E09C018D819E81D901A80FB91F8C81CB
:10058000882F90E09C018D819E81F901E80FF91F71
:1005900080818C938C81882F90E09C018D819E813D
:1005A000F901E80FF91F898180838B818F5F8B832D
:1005B0009B818C81981760F229960FB6F894DEBF64
:1005C0000FBECDBFDF91CF910895CF93DF93CDB70D
:1005D000DEB728970FB6F894DEBF0FBECDBF9E835F
:1005E0008D831B821A82198240C08B81882F90E0F4
:1005F0009C018D819E81F901E80FF91F8081803374
:100600007CF18B81882F90E09C018D819E81F90186
:10061000E80FF91F80818A331CF58B81882F90E0C9
:100620009C018D819E81F901E80FF91F8081805323
:100630008C8389819A819C01220F331FC901880F05
:10064000991F880F991F280F391F8C81882F90E0E0
:10065000820F931F9A8389838B818F5F8B8305C061
:1006600089819A8198878F8311C08B81882F90E030
:100670009C018D819E81F901E80FF91F80818823FB
:1006800009F0B3CF89819A8198878F838F8198856C
:1006900028960FB6F894DEBF0FBECDBFDF91CF9185
:1006A0000895CF93DF93CDB7DEB725970FB6F894B3
:1006B000DEBF0FBECDBF9D838C831B821A820E943A
:1006C000FD01898389818830E9F48A819B8118162C
:1006D0001906C4F48A819B819C018C819D81F9015A
:1006E000E80FF91F108288E00E940F0280E20E944A
:1006F0000F0288E00E940F028A819B8101979B83F1
:100700008A8323C08A819B8184319105F4F4898195
:100710008830D9F089810E940F028A819B819C01D7
:100720008C819D81F901E80FF91F898180838A817D
:100730009B8101969B838A838A819B819C018C810A
:100740009D81F901E80FF91F108289818D3009F030
:10075000B6CF25960FB6F894DEBF0FBECDBFDF91A2
:10076000CF910895CF93DF93CDB7DEB724970FB61F
:10077000F894DEBF0FBECDBF9C838B831A82198293
:1007800005C089819A8101969A83898389819A819A
:100790009C018B819C81F901E80FF91F80818823DE
:1007A00081F789819A8124960FB6F894DEBF0FBE37
:1007B000CDBFDF91CF910895991B79E004C0991FB7
:1007C000961708F0961B881F7A95C9F780950895AB
:1007D000AA1BBB1B51E107C0AA1FBB1FA617B70767
:1007E00010F0A61BB70B881F991F5A95A9F7809583
:0A07F0009095BC01CD010895FFCFE4
:00000001FF
