:100000000C9472000C9491000C9491000C9491004B
:100010000C9491000C9491000C9491000C9491001C
:100020000C9491000C9491000C9491000C9491000C
:100030000C9491000C9491000C9491000C949100FC
:100040000C9491000C9491000C9491000C949100EC
:100050000C9491000C94FF000C9491000C9491006E
:100060000C9491000C94F1030C9494030C94910063
:100070000C9491000C9491000C9491000C949100BC
:100080000C9491000C9491000C9491000C949100AC
:100090000C9491000C9491000C9491000C9491009C
:1000A0000C9491000C9491000C9491000C9491008C
:1000B0000C9491000C9491000C9491000C9491007C
:1000C0000C9491000C9491000C9491000C9491006C
:1000D0000C9491000C9491000C9491000C9491005C
:1000E0000C94910011241FBECFEFD1E2DEBFCDBF33
:1000F00013E0A0E0B2E0E8E1FCE000E00BBF02C0EA
:1001000007900D92A035B107D9F713E0A0E5B3E051
:1001100001C01D92A53EB107E1F70E9493000C9427
:100120000B060C940000CF93DF93CDB7DEB70E948F
:10013000F6020E9419030E94E500789488E193E09A
:100140000E944A040E94CF038823E1F30E941C040A
:10015000803751F480E393E00E944A0480E092E00B
:1001600066E470E00E941B020E941C04863519F4AC
:1001700081E00E9475020E941C04863719F782E014
:100180000E947502DFCFCF93DF93CDB7DEB7229702
:100190000FB6F894DEBF0FBECDBF80915203882307
:1001A00039F01092520381E090E09A83898302C073
:1001B0001A82198289819A8122960FB6F894DEBF3D
:1001C0000FBECDBFDF91CF910895CF93DF93CDB711
:1001D000DEB7E6E4F0E01082E4E4F0E082E0808361
:1001E000E7E4F0E089EF8083E5E4F0E083E08083FA
:1001F000EEE6F0E082E08083DF91CF9108951F92D8
:100200000F920FB60F9211242F933F934F935F934A
:100210006F937F938F939F93AF93BF93EF93FF93CE
:10022000CF93DF93CDB7DEB78091550390915603FE
:1002300001969093560380935503809155039091B6
:10024000560323E0883E920769F4109256031092F9
:100250005503809153039091540301969093540356
:100260008093530380915703909158030196909384
:100270005803809357032091590330915A0380917A
:100280005B0390915C032817390708F07AC08091CE
:10029000590390915A03880F991F880F991F9C0149
:1002A0008091500390915103F901E80FF91F2281C9
:1002B000338180915703909158032817390799F497
:1002C00080915F0390916003009769F41092580346
:1002D0001092570381E090E09093600380935F0356
:1002E00080E00E94D40180915F039091600381308F
:1002F0009105C9F580915703909158038A30910573
:1003000091F58091590390915A03019690935A0365
:10031000809359031092600310925F031092580368
:10032000109257038091590390915A03880F991F97
:10033000880F991F9C018091500390915103F901FE
:10034000E80FF91F808191819C0140E050E084E238
:1003500094EFA0E0B0E0BC01CD010E94CE05DA012F
:10036000C9010E94D4012091590330915A03809110
:100370005B0390915C032817390718F0E1EBF0E07C
:100380001082DF91CF91FF91EF91BF91AF919F913B
:100390008F917F916F915F914F913F912F910F902E
:1003A0000FBE0F901F9018950F931F93CF93DF935D
:1003B000CDB7DEB721970FB6F894DEBF0FBECDBF25
:1003C00089838981882349F1E0EBF0E083E280832F
:1003D000E1EBF0E08EE08083E3EBF0E08981815097
:1003E000808304EB10E0E3EBF0E08081282F30E025
:1003F00080915D0390915E03AC01249FC001259F15
:10040000900D349F900D112424E630E0B9010E9434
:10041000BA05CB01F801808303C0E1EBF0E0108264
:1004200021960FB6F894DEBF0FBECDBFDF91CF91FE
:100430001F910F910895CF93DF93CDB7DEB7249727
:100440000FB6F894DEBF0FBECDBF9A8389837C833D
:100450006B8310925A031092590389819A81909369
:100460005103809350038B819C8190935C03809314
:100470005B031092600310925F0310925803109276
:100480005703A1E0B1E0E1E0F1E0808180648C936A
:10049000E2EBF0E010828091590390915A03880FAB
:1004A000991F880F991F9C018091500390915103CF
:1004B000F901E80FF91F808191819C0140E050E033
:1004C00084E294EFA0E0B0E0BC01CD010E94CE0533
:1004D000DA01C9010E94D40124960FB6F894DEBF58
:1004E0000FBECDBFDF91CF910895CF93DF93CDB7EE
:1004F000DEB76B970FB6F894DEBF0FBECDBF8D8B06
:100500001B8E8D89823011F421E02B8F80915D0349
:1005100090915E031A8E009711F031E03A8F8B8D27
:100520009A8D89238823F1F080915D0390915E0379
:10053000059790935E0380935D0380915D03909196
:100540005E034AE0BC01CE0101960E94340589E3B6
:1005500093E00E944A04CE0101960E944A0486E775
:100560000E944D038D89282F30E0398F288F80918C
:100570005D0390915E031F8A1E8A8B34910520F4DF
:1005800081E090E09F8B8E8B888D998D2E893F899D
:10059000822393230097F1F080915D0390915E0395
:1005A000059690935E0380935D0380915D03909127
:1005B0005E034AE0BC01CE0101960E94340584E44A
:1005C00093E00E944A04CE0101960E944A0486E507
:1005D0000E944D038DE00E944D036B960FB6F89478
:1005E000DEBF0FBECDBFDF91CF910895CF93DF93D4
:1005F000CDB7DEB7A0ECB0E0E0ECF0E08081826047
:100600008C93A1ECB0E0E1ECF0E0808188618C9308
:10061000A1ECB0E0E1ECF0E0808180688C93A2EC8A
:10062000B0E0E2ECF0E0808186608C93DF91CF91C6
:100630000895CF93DF93CDB7DEB7E6E4F0E0108204
:10064000E4E4F0E01082E7E4F0E01082ECE2F0E0B5
:100650008081882F90E0817090708823B9F7E5E45D
:10066000F0E082E08083ECE2F0E08081882F90E08F
:10067000817090700097B9F3E5E4F0E01082A4EC8B
:10068000B0E0E6E4F0E08081882F90E001971196D9
:100690009C938E93DF91CF910895CF93DF93CDB745
:1006A000DEB725970FB6F894DEBF0FBECDBF8983A6
:1006B0008091E303882F90E09C012F5F3F4F3D83A3
:1006C0002C838091E4031B821A828F3321F481E012
:1006D00090E09B838A838C819D812A813B81822348
:1006E00093238F7390700097B1F48091E303882F68
:1006F00090E02981FC01ED55FC4F20838091E303BC
:100700008F5F8F738093E303A1ECB0E0E1ECF0E046
:10071000808180628C9325960FB6F894DEBF0FBE61
:10072000CDBFDF91CF9108951F920F920FB60F9218
:1007300011248F939F93AF93BF93EF93FF93CF9326
:10074000DF93CDB7DEB79091E3038091E403981770
:1007500041F4A1ECB0E0E1ECF0E080818F7D8C937E
:1007600011C0A6ECB0E08091E403882F90E0FC017A
:10077000ED55FC4F80818C938091E4038F5F8F73E4
:100780008093E403DF91CF91FF91EF91BF91AF91FF
:100790009F918F910F900FBE0F901F901895CF9340
:1007A000DF93CDB7DEB722970FB6F894DEBF0FBE4A
:1007B000CDBF9091A1038091A203981719F41A82DA
:1007C000198204C081E090E09A83898389819A81AB
:1007D00022960FB6F894DEBF0FBECDBFDF91CF914A
:1007E00008951F920F920FB60F9211242F933F93EB
:1007F0008F93EF93FF93CF93DF93CDB7DEB78091C5
:10080000A103282F30E0E6ECF0E08081F901EF59F8
:10081000FC4F80838091A1038F5F8F738093A1032E
:10082000DF91CF91FF91EF918F913F912F910F9099
:100830000FBE0F901F901895CF93DF93CDB7DEB703
:1008400021970FB6F894DEBF0FBECDBF19820E946C
:10085000CF038823E1F30E94CF03882379F08091AE
:10086000A203882F90E0FC01EF59FC4F808189831F
:100870008091A2038F5F8F738093A2038981882F59
:1008800090E021960FB6F894DEBF0FBECDBFDF918A
:10089000CF910895CF93DF93CDB7DEB722970FB6F0
:1008A000F894DEBF0FBECDBF9A8389830CC0E98167
:1008B000FA818081282F89819A8101969A83898380
:1008C000822F0E944D03E981FA818081882379F784
:1008D00022960FB6F894DEBF0FBECDBFDF91CF9149
:1008E0000895CF93DF93CDB7DEB724970FB6F89472
:1008F000DEBF0FBECDBF9C838B8319820E941C0478
:100900008A838A818830D1F489818823B9F088E08C
:100910000E944D0380E20E944D0388E00E944D0337
:100920008981882F90E09C018B819C81F901E80FDF
:10093000F91F108289818150898314C089818A308E
:1009400088F48981882F90E09C018B819C81F9013A
:10095000E80FF91F8A8180838A810E944D03898173
:100960008F5F89838A818D3049F68981882F90E055
:100970009C018B819C81F901E80FF91F108224965C
:100980000FB6F894DEBF0FBECDBFDF91CF910895B3
:10099000CF93DF93CDB7DEB728970FB6F894DEBFBD
:1009A0000FBECDBF9E838D831B821A82198240C0E9
:1009B0008B81882F90E09C018D819E81F901E80F49
:1009C000F91F808180337CF18B81882F90E09C011E
:1009D0008D819E81F901E80FF91F80818A331CF512
:1009E0008B81882F90E09C018D819E81F901E80F19
:1009F000F91F808180538C8389819A819C01220F09
:100A0000331FC901880F991F880F991F280F391F9D
:100A10008C81882F90E0820F931F9A8389838B812A
:100A20008F5F8B8305C089819A8198878F8311C0DE
:100A30008B81882F90E09C018D819E81F901E80FC8
:100A4000F91F8081882309F0B3CF89819A81988723
:100A50008F838F81988528960FB6F894DEBF0FBEDE
:100A6000CDBFDF91CF910895CF93DF93CDB7DEB7A0
:100A700029970FB6F894DEBF0FBECDBF9D838C8340
:100A80007F836E83598748871A8219828E819F815E
:100A900028853985B9010E94BA058B838B81805DD9
:100AA0008B838B818A3318F08B81895F8B838A815A
:100AB000882F90E09C018C819D81F901E80FF91F3E
:100AC0008B8180838E819F8128853985B9010E9421
:100AD000BA05CB019F838E838A818F5F8A838E8143
:100AE0009F81009799F68A81882F90E09C018C81E4
:100AF0009D81F901E80FF91F10828A8181508A8354
:100B00008981882F90E09C018C819D81F901E80FFB
:100B1000F91F80818B838981882F90E09C018C81D3
:100B20009D81D901A80FB91F8A81882F90E09C016F
:100B30008C819D81F901E80FF91F80818C938A8156
:100B4000882F90E09C018C819D81F901E80FF91FAD
:100B50008B81808389818F5F898399818A819817AE
:100B600060F229960FB6F894DEBF0FBECDBFDF91BD
:100B7000CF910895AA1BBB1B51E107C0AA1FBB1F41
:100B8000A617B70710F0A61BB70B881F991F5A9519
:100B9000A9F780959095BC01CD01089597FB092E8A
:100BA00005260ED057FD04D014D00AD0001C38F40E
:100BB00050954095309521953F4F4F4F5F4F089589
:100BC000F6F790958095709561957F4F8F4F9F4F69
:100BD0000895A1E21A2EAA1BBB1BFD010DC0AA1F7E
:100BE000BB1FEE1FFF1FA217B307E407F50720F096
:100BF000A21BB30BE40BF50B661F771F881F991F11
:100C00001A9469F760957095809590959B01AC0159
:080C1000BD01CF010895FFCFE3
:100C1800B801F401B801F401B801F4015D017701EC
:100C28000B027D00B801F4015D0177010B027D0024
:100C3800B801E8039302F4019302F4019302F4016A
:100C4800BA0277010B027D009F01F4015D01770173
:100C58000B027D00B801E8037003F401B8017701C5
:100C6800B8017D007003F4013E03FA001003FA0096
:100C7800E4027D00BA027D00E402FA000000FA00F6
:100C8800C701FA006E02F4014B02FA002A02FA00C8
:100C98000B027D00D2017D000B02FA000000FA0071
:100CA8005D017D009F01F4015D017701B8017D00C0
:100CB8000B02F401B80177010B027D009302E803EF
:100CC8007003F401B8017701B8017D007003F401E5
:100CD8003E03FA001003FA00E4027D00BA027D0028
:100CE800E402FA000000FA00C701FA006E02F401FB
:100CF8004B02FA002A02FA000B027D00D2017D00A5
:100D08000B02FA000000FA005D01FA009F01F401ED
:100D18005D0177010B027D00B801F4015D017701E7
:100D280005017D00B801E8030A0D456D7069657A13
:100D3800612070726163746963612031300A0A004E
:100D48000A20506C6179200A000A0D42616A616EBE
:100D5800646F3A000A0D53756269656E646F3A00F4
:00000001FF
